S01A0000696B436172727948756E44654D6F656465722E7372656305
S113000045C0000060C000005EC000005CC000008D
S11300105AC0000058C0000056C0000054C0000080
S113002052C0000050C000004EC000004CC0000090
S11300304AC0000048C0000046C0000044C00000A0
S113004042C0000040C000003EC000003CC00000B0
S11300503AC0000038C0000036C0000034C00000C0
S113006032C0000030C000002EC000002CC00000D0
S11300702AC0000028C0000026C0000024C00000E0
S113008022C0000020C000001EC0000011241FBEBA
S1130090CFEFD0E1DEBFCDBF11E0A0E0B1E0EEEBE9
S11300A0F6E000E00BBF02C007900D92A437B10741
S11300B0D9F721E0A4E7B1E001C01D92A837B20747
S11300C0E1F79CD0FAC29CCFEF92FF920F931F935B
S11300D0CF93DF937B018A01E90145D188E290E067
S11300E05FD1C70140D182E390E05AD1C8013BD12E
S11300F08091740190917501009709F071C0019687
S113010090937501809374016BC0B19B19C02097C3
S1130110B9F426D180E090E0BCD280917401909132
S11301207501019790937501809374018091760114
S1130130909177010196909377018093760150C056
S1130140B19B19C02097B9F00BD181E090E0A1D206
S1130150809174019091750101979093750180933A
S113016074018091760190917701019690937701C3
S11301708093760135C0B29B19C02097B9F4F0D0B2
S113018081E090E086D2809174019091750101978D
S11301909093750180937401809176019091770119
S11301A0019690937701809376011AC0B29B18C090
S11301B02097B1F0D5D080E090E06BD280917401AB
S11301C090917501019790937501809374018091CA
S11301D0760190917701019690937701809376014F
S11301E08091740190917501892B09F08ECFDF9174
S11301F0CF911F910F91FF90EF90089501D18FEF50
S11302008ABB81E08BBBBED0ABD080E091E0ABD0A9
S113021088E290E0C5D080E191E0A5D018BAB19B06
S11302201DC08091760190917701892BB9F498D003
S113023020E030E041E251E065E271E08BE291E0E0
S113024043DF88EE93E042D009C020E030E048E389
S113025051E06CE371E08FE391E036DF8091760149
S113026090917701019789F309C021E030E04BE4D4
S113027051E060E571E086E591E026DF809176014A
S113028090917701029789F30DC06AD085E691E0D9
S11302906AD08091760190917701019690937701CD
S11302A0809376018091760190917701039769F3A9
S11302B006C0B19B04C01092770110927601809120
S11302C07601909177010497A1F3A9CF20E030E063
S11302D008C0EFECF7E03197F1F700C000002F5FA2
S11302E03F4F28173907ACF3089585B3886085BB61
S11302F08FEC97E00197F1F700C0000085B3877F8A
S113030085BB8FEC97E00197F1F700C000000895DA
S11303101F93CF93DF93182F6115710511F061E0DE
S113032070E0812F807F85BB85B3EB01CC0FDD1F8F
S1130330CC0FDD1F8C2B85BBD8DF1295107F15BB2E
S113034065B36C2B65BBD1DFDF91CF911F9108950D
S113035061E070E0DDCF089560E070E0D9CF0895EA
S113036081E0FACF0895CF93DF93EC0102C0F0DF70
S1130370219688818111FBCFDF91CF91089582E08E
S1130380EBCF08958FEF84BB15BA80E285BBADDF58
S113039088E2E2DF8FE0E0DF86E0DEDFF0CF089581
S11303A00F931F93CF93DF938C01E9DFC0E0D0E07C
S11303B003C084E1D1DF2196C017D107D4F3DF91C4
S11303C0CF911F910F9108951092710080E2809354
S11303D07000089584EA80937400809174008823E7
S11303E0E4F7089584E9809374000895809373007A
S11303F084E880937400809174008823E4F708955E
S1130400CF93DF93E1DFE6DF80EEF0DF81E2EEDF22
S1130410E9DFE0DF80EEEADF80EAE8DFE3DFDADF6E
S113042080EEE4DF83EEE2DFDDDFD4DF80EEDEDFCB
S113043081E8DCDFD7DFCEDF80EED8DF80E0D6DFF7
S1130440C0E0D0E003C080E0D1DF2196C031D10507
S1130450D4F3C8DFDF91CF910895CF93DF93EC01FC
S1130460B9DF80EEC3DF80E0C1DF8EE1BFDFBADF3A
S1130470B1DF80EEBBDF82E0B9DF81E2B7DFB2DF5C
S1130480A9DF80EEB3DF84E0B1DF82EDAFDFAADF66
S1130490A1DF80EEABDF86E0A9DF80ECA7DFA2DF7F
S11304A0CD2B89F097DF80EEA1DF88E09FDF82ED1E
S11304B09DDF98DF8FDF80EE99DF8AE097DF8CEC99
S11304C095DF90DF10C086DF80EE90DF88E08EDF5E
S11304D08CEC8CDF87DF7EDF80EE88DF8AE086DFCE
S11304E082ED84DF7FDF76DF80EE80DF8CE07EDFED
S11304F081E27CDF77DF6EDF80EE78DF8EE076DF0F
S11305008EE174DF6FDFDF91CF91089563DF80EEBA
S11305106DDF80E06BDF8EE169DF64DF5BDF80EE3F
S113052065DF82E063DF80E161DF5CDF53DF80EE63
S11305305DDF84E05BDF80E159DF54DF4BDF80EE79
S113054055DF86E053DF8EE151DF4CDF43DF80EE81
S11305504DDF88E04BDF8EE149DF44DF3BDF80EE97
S113056045DF8AE043DF80E141DF3CDF33DF80EEBB
S11305703DDF8CE03BDF80E139DF34DF2BDF80EED1
S113058035DF8EE033DF8EE131DF2CCF089522DFBB
S113059080EE2CDF80E02ADF8EE128DF23DF1ADF04
S11305A080EE24DF82E022DF80E120DF1BDF12DF28
S11305B080EE1CDF84E01ADF80E118DF13DF0ADF3E
S11305C080EE14DF86E012DF8EE110DF0BDF02DF46
S11305D080EE0CDF88E00ADF82E008DF03DFFADE6A
S11305E080EE04DF8AE002DF82E000DFFBDEF2DE81
S11305F080EEFCDE8CE0FADE82E0F8DEF3DEEADE9A
S113060080EEF4DE8EE0F2DE8EE1F0DEEBCE0895D5
S1130610E1DE80EEEBDE80E0E9DE88E0E7DEE2DECC
S1130620D9DE80EEE3DE82E0E1DE8CE0DFDEDADEDE
S1130630D1DE80EEDBDE84E0D9DE88E0D7DED2DEF8
S1130640C9DE80EED3DE86E0D1DE88E0CFDECADE0E
S1130650C1DE80EECBDE88E0C9DE88E0C7DEC2DE24
S1130660B9DE80EEC3DE8AE0C1DE88E0BFDEBADE3A
S1130670B1DE80EEBBDE8CE0B9DE88E0B7DEB2DE50
S1130680A9DE80EEB3DE8EE0B1DE8EE1AFDEAACE6F
S11306900895CF93DF93EC0139DF84EF91E016DE08
S11306A076DF84EF91E012DEB3DF84EF91E00EDEBB
S11106B0CE01D3DEDF91CF910895F894FFCFF1
S11306BE77656C6B6F6D2C206472756B206F700098
S11306CE4231206F6D207465207374617274656E8F
S11306DE004A616E004A7572726500486F65206843
S11306EE65657420696B3F0042494D00544900779B
S11306FE617420646F6520696B3F005065657200FC
S113070E7061746174007761742069732067657A0F
S113071E6F6E643F006B6C616172206973206B6550
S107072E65730000EB
S9030000FC
