:1000000045C0000060C000005EC000005CC0000091
:100010005AC0000058C0000056C0000054C0000084
:1000200052C0000050C000004EC000004CC0000094
:100030004AC0000048C0000046C0000044C00000A4
:1000400042C0000040C000003EC000003CC00000B4
:100050003AC0000038C0000036C0000034C00000C4
:1000600032C0000030C000002EC000002CC00000D4
:100070002AC0000028C0000026C0000024C00000E4
:1000800022C0000020C000001EC0000011241FBEBE
:10009000CFEFD0E1DEBFCDBF11E0A0E0B1E0E2EFF5
:1000A000F3E000E00BBF02C007900D92A835B10746
:1000B000D9F721E0A8E5B1E001C01D92AE35B20745
:1000C000E1F7E5D094C19CCF20E030E008C0EFEC30
:1000D000F7E03197F1F700C000002F5F3F4F28177E
:1000E0003907ACF3089585B3886085BB8FEC97E042
:1000F0000197F1F700C0000085B3877F85BB8FECC7
:1001000097E00197F1F700C0000008951F93CF9387
:10011000DF93182F6115710511F061E070E0812FF8
:10012000807F85BB85B3EB01CC0FDD1FCC0FDD1FBE
:100130008C2B85BBD8DF1295107F15BB65B36C2B5C
:1001400065BBD1DFDF91CF911F91089561E070E031
:10015000DDCF089560E070E0D9CF089581E0FACF57
:100160000895CF93DF93EC0102C0F0DF21968881E0
:100170008111FBCFDF91CF91089582E0EBCF0895FD
:100180008FEF84BB15BA80E285BBADDF88E2E2DF8A
:100190008FE0E0DF86E0DEDFF0CF08950F931F935E
:1001A000CF93DF938C01E9DFC0E0D0E003C084E1AE
:1001B000D1DF2196C017D107D4F3DF91CF911F91E2
:1001C0000F910895EF92FF920F931F93CF93DF93B8
:1001D0007B018A01E901C5DF88E290E0DFDFC7012A
:1001E000C0DF82E390E0DADFC801BBDF42C080916C
:1001F0005A0190915B01009731F0209721F482E041
:1002000091E0AFDF36C0892B79F0209769F087E065
:1002100091E0A7DF809100019091010101979093F7
:1002200001018093000125C08091580190915901EE
:10023000009779F0209769F487E091E092DF809150
:1002400000019091010101979093010180930001B9
:1002500010C0892B71F0209761F082E091E081DF7E
:100260008091000190910101019790930101809389
:1002700000018091000190910101892B09F0B7CF15
:10028000DF91CF911F910F91FF90EF90089582D051
:100290008FEF8ABB81E08BBB73DF60DF8CE091E086
:1002A00060DF88E290E07ADF8CE191E05ADF18BAF3
:1002B000B19B1CC080915C0190915D01892BB1F4D0
:1002C0004DDF20E030E04DE251E061E371E087E393
:1002D00091E078DF80915C0190915D0101969093AF
:1002E0005D0180935C0188EC90E0EEDEB19B19C06B
:1002F00080915C0190915D01019799F42FDF21E0DD
:1003000030E044E451E068E471E08BE491E05ADFCE
:1003100080915C0190915D01019690935D018093C5
:100320005C01B19BC5CF80915C0190915D0102970A
:1003300009F0BECF13DF21E030E044E451E068E48F
:1003400071E08BE491E03EDF80915C0190915D0172
:10035000019690935D0180935C01AACF1092710089
:1003600080E280937000089584EA80937400809105
:1003700074008823E4F7089584E980937400089555
:100380008093730084E880937400809174008823C4
:10039000E4F70895CF93DF93E1DFE6DF80EEF0DF4F
:1003A00081E2EEDFE9DFE0DF80EEEADF80EAE8DF2E
:1003B000E3DFDADF80EEE4DF83EEE2DFDDDFD4DFF0
:1003C00080EEDEDF81E8DCDFD7DFCEDF80EED8DF56
:1003D00080E0D6DFC0E0D0E003C080E0D1DF21962E
:1003E000C031D105D4F3C8DFDF91CF910895F894DF
:0203F000FFCF3D
:1003F2000100476F656400466F75740077656C6B2A
:100402006F6D2C206472756B206F70004231206F0B
:100412006D207465207374617274656E004A616E3A
:10042200004A7572726500486F65206865657420C0
:10043200696B3F0042494D00544900776174206462
:080442006F6520696B3F0000AB
:00000001FF
