S01A0000696B436172727948756E44654D6F656465722E7372656305
S113000045C0000060C000005EC000005CC000008D
S11300105AC0000058C0000056C0000054C0000080
S113002052C0000050C000004EC000004CC0000090
S11300304AC0000048C0000046C0000044C00000A0
S113004042C0000040C000003EC000003CC00000B0
S11300503AC0000038C0000036C0000034C00000C0
S113006032C0000030C000002EC000002CC00000D0
S11300702AC0000028C0000026C0000024C00000E0
S113008022C0000020C000001EC0000011241FBEBA
S1130090CFEFD0E1DEBFCDBF11E0A0E0B1E0E4E1FD
S11300A0F5E000E00BBF02C007900D92AA37B1073C
S11300B0D9F721E0AAE7B1E001C01D92AE37B2073B
S11300C0E1F720D125C29CCF20E030E008C0EFEC5E
S11300D0F7E03197F1F700C000002F5F3F4F28177A
S11300E03907ACF3089585B3886085BB8FEC97E03E
S11300F00197F1F700C0000085B3877F85BB8FECC3
S113010097E00197F1F700C0000008951F93CF9383
S1130110DF93182F6115710511F061E070E0812FF4
S1130120807F85BB85B3EB01CC0FDD1FCC0FDD1FBA
S11301308C2B85BBD8DF1295107F15BB65B36C2B58
S113014065BBD1DFDF91CF911F91089561E070E02D
S1130150DDCF089560E070E0D9CF089581E0FACF53
S11301600895CF93DF93EC0102C0F0DF21968881DC
S11301708111FBCFDF91CF91089582E0EBCF0895F9
S11301808FEF84BB15BA80E285BBADDF88E2E2DF86
S11301908FE0E0DF86E0DEDFF0CF08950F931F935A
S11301A0CF93DF938C01E9DFC0E0D0E003C084E1AA
S11301B0D1DF2196C017D107D4F3DF91CF911F91DE
S11301C00F910895CF93DF93EC01C8DF85E090E0B1
S11301D0E5DF80E091E0C5DF88EE93E075DF85E040
S11301E090E0DCDF82E091E0BCDF88EE93E06CDF3E
S11301F085E090E0D3DF84E091E0B3DF84EF91E029
S113020063DF80E090E0CADF2097B1F081E090E006
S113021026D180917A0190917B01019790937B0183
S113022080937A0180917C0190917D010196909355
S11302307D0180937C0117C0CD2BA9F480E090E070
S11302400ED180917A0190917B01019790937B016B
S113025080937A0180917C0190917D010196909325
S11302607D0180937C01DF91CF910895EF92FF92FD
S11302700F931F93CF93DF937B018A01E90171DF11
S113028088E290E08BDFC7016CDF82E390E086DFD9
S1130290C80167DF80917A0190917B01009729F56D
S11302A0019690937B0180937A011FC0B19B06C095
S11302B0209721F480E090E085DF17C0B19B06C051
S11302C0209721F081E090E07DDF0FC0B29B06C053
S11302D0209721F481E090E075DF07C0B29B05C050
S11302E0209719F080E090E06DDF80917A01909181
S11302F07B01892BD9F6DF91CF911F910F91FF904C
S1130300EF9008957FD08FEF8ABB81E08BBB38DFFD
S113031025DF86E091E025DF88E290E03FDF86E19B
S113032091E01FDF18BAB19B20C080917C019091AD
S11303307D01892BD1F412DF20E030E047E251E067
S11303406BE271E081E391E091DF88EE93E0BCDE43
S11303500CC020E030E04EE351E062E471E085E45B
S113036091E084DF88EE93E0AFDE80917C01909190
S11303707D01019771F30CC021E030E041E551E0CB
S113038066E571E08CE591E071DF88EE93E09CDE38
S113039080917C0190917D01029771F310C0DEDEA3
S11303A088EE93E091DE8BE691E0DBDE80917C01C8
S11303B090917D01019690937D0180937C018091C1
S11303C07C0190917D01039751F3ADCF10927100A0
S11303D080E280937000089584EA80937400809191
S11303E074008823E4F7089584E9809374000895E1
S11303F08093730084E88093740080917400882350
S1130400E4F70895CF93DF93E1DFE6DF80EEF0DFDA
S113041081E2EEDFE9DFE0DF80EEEADF80EAE8DFB9
S1130420E3DFDADF80EEE4DF83EEE2DFDDDFD4DF7B
S113043080EEDEDF81E8DCDFD7DFCEDF80EED8DFE1
S113044080E0D6DFC0E0D0E003C080E0D1DF2196B9
S1130450C031D105D4F3C8DFDF91CF910895CF9394
S1130460DF93EC01B9DF80EEC3DF80E0C1DF8EE112
S1130470BFDFBADFB1DF80EEBBDF82E0B9DF81E24C
S1130480B7DFB2DFA9DF80EEB3DF84E0B1DF82ED56
S1130490AFDFAADFA1DF80EEABDF86E0A9DF80EC6F
S11304A0A7DFA2DFCD2B89F097DF80EEA1DF88E004
S11304B09FDF82ED9DDF98DF8FDF80EE99DF8AE09A
S11304C097DF8CEC95DF90DF10C086DF80EE90DF45
S11304D088E08EDF8CEC8CDF87DF7EDF80EE88DFC8
S11304E08AE086DF82ED84DF7FDF76DF80EE80DFE7
S11304F08CE07EDF81E27CDF77DF6EDF80EE78DF09
S11305008EE076DF8EE174DF6FDFDF91CF910895A7
S1070510F894FFCF89
S113051433003200310077656C6B6F6D2C2064728C
S1130524756B206F70004231206F6D2074652073E9
S113053474617274656E004A616E004A7572726504
S113054400486F65206865657420696B3F00424903
S11305544D0054490077617420646F6520696B3FD2
S11305640050656572007061746174007761742071
S113057469732067657A6F6E643F006B6C616172A6
S10D0584206973206B6565730000A5
S9030000FC
