S01A0000696B436172727948756E44654D6F656465722E7372656305
S113000045C0000058C0000056C0000054C00000A5
S113001052C0000050C000004EC000004CC00000A0
S11300204AC0000048C0000046C0000044C00000B0
S113003042C0000040C000003EC000003CC00000C0
S11300403AC0000038C0000036C0000034C00000D0
S113005032C0000030C000002EC000002CC00000E0
S11300602AC0000028C0000026C0000024C00000F0
S113007022C0000020C000001EC000001CC0000000
S11300801AC0000018C0000016C0000011241FBED2
S1130090CFEFD0E1DEBFCDBF11E0A0E0B1E0E6E3F9
S11300A0F3E000E00BBF02C007900D92AE30B10741
S11300B0D9F780D03EC1A4CF20E030E008C0EFECF7
S11300C0F7E03197F1F700C000002F5F3F4F28178A
S11300D03907ACF3089585B3886085BB8FEC97E04E
S11300E00197F1F700C0000085B3877F85BB8FECD3
S11300F097E00197F1F700C0000008951F93CF9394
S1130100DF93182F6115710511F061E070E0812F04
S1130110807F85BB85B3EB01CC0FDD1FCC0FDD1FCA
S11301208C2B85BBD8DF1295107F15BB65B36C2B68
S113013065BBD1DFDF91CF911F91089561E070E03D
S1130140DDCF089560E070E0D9CF089581E0FACF63
S11301500895CF93DF93EC0102C0F0DF21968881EC
S11301608111FBCFDF91CF91089582E0EBCF089509
S11301708FEF84BB15BA80E285BBADDF88E2E2DF96
S11301808FE0E0DF86E0DEDFF0CF08950F931F936A
S1130190CF93DF938C01E9DFC0E0D0E003C084E1BA
S11301A0D1DF2196C017D107D4F3DF91CF911F91EE
S11301B00F91089538D08FEF8ABB81E08BBBD8DFD5
S11301C0C5DF80E091E0C5DF8AE090E0DFDF86E014
S11301D091E0BFDF81E090E053D088EE93E06CDFE4
S11301E080E090E04DD084EF91E066DFF3CF109291
S11301F0710080E280937000089584EA8093740013
S1130200809174008823E4F7089584E9809374004E
S113021008958093730084E880937400809174003F
S11302208823E4F70895CF93DF93E1DFE6DF80EEE0
S1130230F0DF81E2EEDFE9DFE0DF80EEEADF80EA93
S1130240E8DFE3DFDADF80EEE4DF83EEE2DFDDDF49
S1130250D4DF80EEDEDF81E8DCDFD7DFCEDF80EEC7
S1130260D8DF80E0D6DFC0E0D0E003C080E0D1DF9B
S11302702196C031D105D4F3C8DFDF91CF91089521
S1130280CF93DF93EC01B9DF80EEC3DF80E0C1DF01
S11302908EE1BFDFBADFB1DF80EEBBDF82E0B9DF22
S11302A081E2B7DFB2DFA9DF80EEB3DF84E0B1DF44
S11302B082EDAFDFAADFA1DF80EEABDF86E0A9DF4E
S11302C080ECA7DFA2DFCD2B89F097DF80EEA1DFE2
S11302D088E09FDF82ED9DDF98DF8FDF80EE99DF7E
S11302E08AE097DF8CEC95DF90DF10C086DF80EE2C
S11302F090DF88E08EDF8CEC8CDF87DF7EDF80EEA2
S113030088DF8AE086DF82ED84DF7FDF76DF80EEC0
S113031080DF8CE07EDF81E27CDF77DF6EDF80EEE2
S113032078DF8EE076DF8EE174DF6FDFDF91CF91CF
S10903300895F894FFCFCC
S111033648656C6C6F00576F726C6421000098
S9030000FC
