S014000045696E646F706472616368742E737265633B
S113000045C0000060C000005EC000005CC000008D
S11300105AC0000058C0000056C0000054C0000080
S113002052C0000050C000004EC000004CC0000090
S11300304AC0000048C0000046C0000044C00000A0
S113004042C0000040C000003EC000003CC00000B0
S11300503AC0000038C0000036C0000034C00000C0
S113006032C0000030C000002EC000002CC00000D0
S11300702AC0000028C0000026C0000024C00000E0
S113008022C0000020C000001EC0000011241FBEBA
S1130090CFEFD0E1DEBFCDBF11E0A0E0B1E0E2ECF4
S11300A0F6E000E00BBF02C007900D92A238B10742
S11300B0D9F721E0A2E8B1E001C01D92A638B20749
S11300C0E1F79CD0FCC29CCFEF92FF920F931F9359
S11300D0CF93DF937B018A01E90147D188E290E065
S11300E061D1C70142D182E390E05CD1C8013DD126
S11300F08091820190918301009709F071C001966B
S113010090938301809382016BC0B19B19C02097A7
S1130110B9F428D180E090E0BED280918201909120
S113012083010197909383018093820180918401DC
S1130130909185010196909385018093840150C02C
S1130140B19B19C02097B9F00DD181E090E0A3D202
S11301508091820190918301019790938301809310
S1130160820180918401909185010196909385018B
S11301708093840135C0B29B19C02097B9F4F2D0A2
S113018081E090E088D2809182019091830101976F
S113019090938301809382018091840190918501E1
S11301A0019690938501809384011AC0B29B18C074
S11301B02097B1F0D7D080E090E06DD28091820199
S11301C090918301019790938301809382018091A0
S11301D08401909185010196909385018093840117
S11301E08091820190918301892B09F08ECFDF9158
S11301F0CF911F910F91FF90EF90089503D1C4D038
S1130200B1D080E091E0B1D088E290E0CBD080E141
S113021091E0ABD018BAB19B1DC08091840190913C
S11302208501892BB9F49ED020E030E041E251E011
S113023065E271E08BE291E047DF88EE93E048D01D
S113024009C020E030E048E351E06CE371E08FE363
S113025091E03ADF8091840190918501019789F3BF
S113026009C021E030E04BE451E060E571E086E54F
S113027091E02ADF8091840190918501029789F3AE
S113028013C070D085E691E070D088E290E08AD007
S113029083E791E06AD08091840190918501019671
S11302A090938501809384018091840190918501CC
S11302B0039739F306C0B19B04C0109285011092D4
S11302C0840180918401909185010497A1F3A3CFC7
S11302D020E030E008C0EFECF7E03197F1F700C020
S11302E000002F5F3F4F28173907ACF3089585B3FB
S11302F0886085BB8FEC97E00197F1F700C00000A0
S113030085B3877F85BB8FEC97E00197F1F700C039
S1130310000008951F93CF93DF93182F6115710583
S113032011F061E070E0812F807F85BB85B3EB0124
S1130330CC0FDD1FCC0FDD1F8C2B85BBD8DF1295B6
S1130340107F15BB65B36C2B65BBD1DFDF91CF91FB
S11303501F91089561E070E0DDCF089560E070E0E2
S1130360D9CF089581E0FACF0895CF93DF93EC01BC
S113037002C0F0DF219688818111FBCFDF91CF91FC
S1130380089582E0EBCF08958FEF84BB15BA80E225
S113039085BBADDF88E2E2DF8FE0E0DF86E0DEDF11
S11303A0F0CF08950F931F93CF93DF938C01E9DF70
S11303B0C0E0D0E003C084E1D1DF2196C017D107AB
S11303C0D4F3DF91CF911F910F9108951092710092
S11303D080E280937000089584EA80937400809191
S11303E074008823E4F7089584E9809374000895E1
S11303F08093730084E88093740080917400882350
S1130400E4F70895CF93DF93E1DFE6DF80EEF0DFDA
S113041081E2EEDFE9DFE0DF80EEEADF80EAE8DFB9
S1130420E3DFDADF80EEE4DF83EEE2DFDDDFD4DF7B
S113043080EEDEDF81E8DCDFD7DFCEDF80EED8DFE1
S113044080E0D6DFC0E0D0E003C080E0D1DF2196B9
S1130450C031D105D4F3C8DFDF91CF910895CF9394
S1130460DF93EC01B9DF80EEC3DF80E0C1DF8EE112
S1130470BFDFBADFB1DF80EEBBDF82E0B9DF81E24C
S1130480B7DFB2DFA9DF80EEB3DF84E0B1DF82ED56
S1130490AFDFAADFA1DF80EEABDF86E0A9DF80EC6F
S11304A0A7DFA2DFCD2B89F097DF80EEA1DF88E004
S11304B09FDF82ED9DDF98DF8FDF80EE99DF8AE09A
S11304C097DF8CEC95DF90DF10C086DF80EE90DF45
S11304D088E08EDF8CEC8CDF87DF7EDF80EE88DFC8
S11304E08AE086DF82ED84DF7FDF76DF80EE80DFE7
S11304F08CE07EDF81E27CDF77DF6EDF80EE78DF09
S11305008EE076DF8EE174DF6FDFDF91CF910895A7
S113051063DF80EE6DDF80E06BDF8EE169DF64DF37
S11305205BDF80EE65DF82E063DF80E161DF5CDF5B
S113053053DF80EE5DDF84E05BDF80E159DF54DF71
S11305404BDF80EE55DF86E053DF8EE151DF4CDF79
S113055043DF80EE4DDF88E04BDF8EE149DF44DF8F
S11305603BDF80EE45DF8AE043DF80E141DF3CDFB3
S113057033DF80EE3DDF8CE03BDF80E139DF34DFC9
S11305802BDF80EE35DF8EE033DF8EE131DF2CCFE1
S1130590089522DF80EE2CDF80E02ADF8EE128DF61
S11305A023DF1ADF80EE24DF82E022DF80E120DF18
S11305B01BDF12DF80EE1CDF84E01ADF80E118DF2E
S11305C013DF0ADF80EE14DF86E012DF8EE110DF36
S11305D00BDF02DF80EE0CDF88E00ADF82E008DF59
S11305E003DFFADE80EE04DF8AE002DF82E000DF70
S11305F0FBDEF2DE80EEFCDE8CE0FADE82E0F8DE8A
S1130600F3DEEADE80EEF4DE8EE0F2DE8EE1F0DE92
S1130610EBCE0895E1DE80EEEBDE80E0E9DE88E0FB
S1130620E7DEE2DED9DE80EEE3DE82E0E1DE8CE0CE
S1130630DFDEDADED1DE80EEDBDE84E0D9DE88E0E8
S1130640D7DED2DEC9DE80EED3DE86E0D1DE88E0FE
S1130650CFDECADEC1DE80EECBDE88E0C9DE88E014
S1130660C7DEC2DEB9DE80EEC3DE8AE0C1DE88E02A
S1130670BFDEBADEB1DE80EEBBDE8CE0B9DE88E040
S1130680B7DEB2DEA9DE80EEB3DE8EE0B1DE8EE14F
S1130690AFDEAACE0895CF93DF93EC0139DF88EE65
S11306A093E016DE76DF88EE93E012DEB3DF88EEA9
S11306B093E00EDECE01D3DEDF91CF910895F8945E
S10506C0FFCF66
S11306C277656C6B6F6D21204472756B206F7000BF
S11306D24231206F6D207465207374617274656E8B
S11306E2004A616E004A7572726500486F6520683F
S11306F265657420696B3F0042494D005449007797
S1130702617420646F6520696B3F005065657200F7
S11307127061746174007761742069732067657A0B
S11307226F6E643F006B6C616172206973206B654C
S113073265730072657374617274206F7020423144
S10507420000B1
S9030000FC
