:100000000C9446000C945E010C945E010C945E010D
:100010000C945E010C945E010C945E010C945E01E4
:100020000C945E010C945E010C945E010C945E01D4
:100030000C945E010C945E010C945E010C945E01C4
:100040000C945E010C945E010C945E010C945E01B4
:100050000C945E010C945E010C945E010C945E01A4
:100060000C945E010C945E010C945E010C945E0194
:100070000C945E010C945E010C945E010C945E0184
:100080000C945E010C945E010C945E0111241FBE61
:10009000CFEFD0E1DEBFCDBF0E9420010C94500015
:0400A000F894FFCF02
:1000A400CF93DF93EC010E944C0180EE0E94420149
:1000B40080E00E9442018EE10E9442010E945A01A6
:1000C4000E944C0180EE0E94420182E00E944201A3
:1000D40081E20E9442010E945A010E944C0180EE7A
:1000E4000E94420184E00E94420182ED0E9442018A
:1000F4000E945A010E944C0180EE0E94420186E057
:100104000E94420180EC0E9442010E945A01CD2BC0
:10011400D9F00E944C0180EE0E94420188E00E94C6
:10012400420182ED0E9442010E945A010E944C0148
:1001340080EE0E9442018AE00E9442018CEC0E94FF
:1001440042010E945A011AC00E944C0180EE0E9492
:10015400420188E00E9442018CEC0E9442010E940C
:100164005A010E944C0180EE0E9442018AE00E94E2
:10017400420182ED0E9442010E945A010E944C01F8
:1001840080EE0E9442018CE00E94420181E20E94C2
:1001940042010E945A010E944C0180EE0E944201D9
:1001A4008EE00E9442018EE10E9442010E945A01A7
:0601B400DF91CF910895D8
:1001BA00CF93DF930E9454010E944C0180EE0E946B
:1001CA00420181E20E9442010E945A010E944C01AE
:1001DA0080EE0E94420180EA0E9442010E945A0176
:1001EA000E944C0180EE0E94420183EE0E9442016D
:1001FA000E945A010E944C0180EE0E94420181E84D
:10020A000E9442010E945A010E944C0180EE0E9403
:10021A00420180E00E944201C0E0D0E004C080E0D8
:10022A000E9442012196C031D105CCF30E945A01A5
:06023A00DF91CF91089551
:100240000E94DD0081E090E00E94520088EE93E081
:100250000E94330180E090E00E94520088EE93E01B
:060260000E943301EFCF04
:1002660020E030E008C0EFECF7E03197F1F700C08E
:0E02760000002F5F3F4F28173907ACF30895A3
:100284008093730084E880937400809174008823C1
:04029400E4F70895EE
:1002980084EA80937400809174008823E4F70895B9
:0C02A8001092710080E2809370000895B5
:0802B40084E9809374000895B1
:0402BC000C9400009E
:00000001FF
