:100000000C9446000C94D8000C94D8000C94D800A2
:100010000C94D8000C94D8000C94D8000C94D80000
:100020000C94D8000C94D8000C94D8000C94D800F0
:100030000C94D8000C94D8000C94D8000C94D800E0
:100040000C94D8000C94D8000C94D8000C94D800D0
:100050000C94D8000C94D8000C94D8000C94D800C0
:100060000C94D8000C94D8000C94D8000C94D800B0
:100070000C94D8000C94D8000C94D8000C94D800A0
:100080000C94D8000C94D8000C94D80011241FBEF6
:10009000CFEFD0E1DEBFCDBF0E9495000C945000A1
:0400A000F894FFCF02
:1000A400CF93DF930E94CE000E94C60080EE0E9490
:1000B400BC0081E20E94BC000E94D4000E94C600E1
:1000C40080EE0E94BC0080EA0E94BC000E94D40022
:1000D4000E94C60080EE0E94BC0083EE0E94BC0019
:1000E4000E94D4000E94C60080EE0E94BC0081E8F9
:1000F4000E94BC000E94D4000E94C60080EE0E94B0
:10010400BC0080E00E94BC00C0E0D0E004C080E0FD
:100114000E94BC002196C031D105CCF30E94D400CA
:06012400DF91CF91089568
:10012A000E94520084EF91E00E94AD000E94C60036
:10013A0080EE0E94BC0080E00E94BC0081E00E9428
:10014A00BC000E94D40080ED97E00E94AD00EACF87
:10015A0020E030E008C0EFECF7E03197F1F700C09B
:0E016A0000002F5F3F4F28173907ACF30895B0
:100178008093730084E880937400809174008823CE
:04018800E4F70895FB
:10018C0084EA80937400809174008823E4F70895C6
:0C019C001092710080E2809370000895C2
:0801A80084E9809374000895BE
:0401B0000C940000AB
:00000001FF
