:100000000C9446000C941F010C941F010C941F01CA
:100010000C941F010C941F010C941F010C941F01E0
:100020000C941F010C941F010C941F010C941F01D0
:100030000C941F010C941F010C941F010C941F01C0
:100040000C941F010C941F010C941F010C941F01B0
:100050000C941F010C941F010C941F010C941F01A0
:100060000C941F010C941F010C941F010C941F0190
:100070000C941F010C941F010C941F010C941F0180
:100080000C941F010C941F010C941F0111241FBE1E
:10009000CFEFD0E1DEBFCDBF0E9416010C9450001F
:0400A000F894FFCF02
:1000A4000E94080180EE0E94FE0080E00E94FE0093
:1000B4008EE10E94FE000E941B010E94080180EE56
:1000C4000E94FE0082E00E94FE0081E20E94FE0087
:1000D4000E941B010E94080180EE0E94FE0084E041
:1000E4000E94FE0082ED0E94FE000E941B010E94FD
:1000F400080180EE0E94FE0086E00E94FE0080EC73
:100104000E94FE000E941B010E94080180EE0E94D2
:10011400FE0088E00E94FE0082ED0E94FE000E9424
:100124001B010E94080180EE0E94FE008AE00E94EA
:10013400FE008CEC0E94FE000E941B010E9408013C
:1001440080EE0E94FE008CE00E94FE0081E20E948C
:10015400FE000E941B010E94080180EE0E94FE0026
:100164008EE00E94FE008EE10E94FE000E941B01B0
:020174000895EC
:10017600CF93DF930E9410010E94080180EE0E9437
:10018600FE0081E20E94FE000E941B010E940801FF
:1001960080EE0E94FE0080EA0E94FE000E941B0183
:1001A6000E94080180EE0E94FE0083EE0E94FE007F
:1001B6000E941B010E94080180EE0E94FE0081E859
:1001C6000E94FE000E941B010E94080180EE0E9410
:1001D600FE0080E00E94FE00C0E0D0E004C080E0A7
:1001E6000E94FE002196C031D105CCF30E941B016E
:0601F600DF91CF91089596
:1001FC008093730084E8809374008091740088234A
:04020C00E4F7089576
:1002100084EA80937400809174008823E4F7089541
:0C0220001092710080E28093700008953D
:0A022C000E94BB000E945200FDCFAB
:0802360084E98093740008952F
:04023E000C9400001C
:00000001FF
