:100000000C9446000C94FB000C94FB000C94FB0039
:100010000C94FB000C94FB000C94FB000C94FB0074
:100020000C94FB000C94FB000C94FB000C94FB0064
:100030000C94FB000C94FB000C94FB000C94FB0054
:100040000C94FB000C94FB000C94FB000C94FB0044
:100050000C94FB000C94FB000C94FB000C94FB0034
:100060000C94FB000C94FB000C94FB000C94FB0024
:100070000C94FB000C94FB000C94FB000C94FB0014
:100080000C94FB000C94FB000C94FB0011241FBE8D
:10009000CFEFD0E1DEBFCDBF0E9495000C945000A1
:0400A000F894FFCF02
:1000A400CF93DF930E94F1000E94E90080EE0E944A
:1000B400DF0081E20E94DF000E94F7000E94E90055
:1000C40080EE0E94DF0080EA0E94DF000E94F700B9
:1000D4000E94E90080EE0E94DF0083EE0E94DF00B0
:1000E4000E94F7000E94E90080EE0E94DF0081E890
:1000F4000E94DF000E94F7000E94E90080EE0E9447
:10010400DF0080E00E94DF00C0E0D0E004C080E0B7
:100114000E94DF002196C031D105CCF30E94F70084
:06012400DF91CF91089568
:10012A000E9452000E94E90080EE0E94DF0080E0F7
:10013A000E94DF008FEF0E94DF000E94F7000E94FA
:10014A00E90080EE0E94DF0082E00E94DF008FEF6C
:10015A000E94DF000E94F7000E94E90080EE0E94E0
:10016A00DF0084E00E94DF008FEF0E94DF000E9420
:10017A00F7000E94E90080EE0E94DF008CE00E94F6
:10018A00DF008FEF0E94DF000E94F70080ED97E00A
:06019A000E94D000C7CF57
:1001A00020E030E008C0EFECF7E03197F1F700C055
:0E01B00000002F5F3F4F28173907ACF308956A
:1001BE008093730084E88093740080917400882388
:0401CE00E4F70895B5
:1001D20084EA80937400809174008823E4F7089580
:0C01E2001092710080E28093700008957C
:0801EE0084E980937400089578
:0401F6000C94000065
:00000001FF
