:100000000C9446000C9494010C9494010C9494016B
:100010000C9494010C9494010C9494010C9494010C
:100020000C9494010C9494010C9494010C949401FC
:100030000C9494010C9494010C9494010C949401EC
:100040000C9494010C9494010C9494010C949401DC
:100050000C9494010C9494010C9494010C949401CC
:100060000C9494010C9494010C9494010C949401BC
:100070000C9494010C9494010C9494010C949401AC
:100080000C9494010C9494010C94940111241FBEBF
:10009000CFEFD0E1DEBFCDBF0E943F010C945000F6
:0400A000F894FFCF02
:1000A400CF93DF93EC010E94820180EE0E947801DD
:1000B40080E00E9478018EE10E9478010E94900104
:1000C4000E94820180EE0E94780182E00E94780101
:1000D40081E20E9478010E9490010E94820180EED8
:1000E4000E94780184E00E94780182ED0E947801E8
:1000F4000E9490010E94820180EE0E94780186E0B5
:100104000E94780180EC0E9478010E949001CD2B1E
:10011400D9F00E94820180EE0E94780188E00E945A
:10012400780182ED0E9478010E9490010E94820170
:1001340080EE0E9478018AE00E9478018CEC0E9493
:1001440078010E9490011AC00E94820180EE0E94F0
:10015400780188E00E9478018CEC0E9478010E946A
:1001640090010E94820180EE0E9478018AE00E9440
:10017400780182ED0E9478010E9490010E94820120
:1001840080EE0E9478018CE00E94780181E20E9456
:1001940078010E9490010E94820180EE0E94780101
:1001A4008EE00E9478018EE10E9478010E94900105
:0601B400DF91CF910895D8
:1001BA00CF93DF930E948A010E94820180EE0E94FF
:1001CA00780181E20E9478010E9490010E948201D6
:1001DA0080EE0E94780180EA0E9478010E949001D4
:1001EA000E94820180EE0E94780183EE0E947801CB
:1001FA000E9490010E94820180EE0E94780181E8AB
:10020A000E9478010E9490010E94820180EE0E9461
:10021A00780180E00E947801C0E0D0E004C080E06C
:10022A000E9478012196C031D105CCF30E94900139
:06023A00DF91CF91089551
:10024000CF938FEF84BB15BAC0E2C5BB0E945601A5
:10025000C5BB0E94560180E885BB0E94560115BAB5
:100260000E94560180EF85BB0E94560115BA0E947C
:0E027000560180E685BB0E945601CF9108958D
:10027E000E94DD008FEF82B90E94200181E090E0A4
:10028E000E94520088EE93E00E94690180E090E0A7
:0E029E000E94520088EE93E00E946901EFCFAB
:1002AC0085B3886085BB89EF90E00197F1F700C0BA
:1002BC00000085B3877F85BB89EF90E00197F1F74C
:0602CC0000C000000895CF
:1002D20020E030E008C0EFECF7E03197F1F700C022
:0E02E20000002F5F3F4F28173907ACF3089537
:1002F0008093730084E88093740080917400882355
:04030000E4F7089581
:1003040084EA80937400809174008823E4F708954C
:0C0314001092710080E280937000089548
:0803200084E980937400089544
:040328000C94000031
:00000001FF
